HC08292013
210077BILLS AUTO SERVICE              Y050001YP00400PA00000000000000000000000000000000000000002A2YYYNNNJIM SMITH           JSMITH@ACME.COM                         00000YYY
210084Loc-uyen Pizza Parlor           N000001NN00000AP00100100000001000000000000000000000000002N0NYYNNNJIM SMITH           JSMITH@ACME.COM                         00000NYN
210085Chris's Pub                     Y007002YN00000PP00010010000000000000000000000000000000002C2NYYNNNJIM SMITH           JSMITH@ACME.COM                         00000NNN
511024SMITH ELECTRICAL                N000003NN00000AP00100000100000000100000000000000000000003N1NYYNNNJIM SMITH           JSMITH@ACME.COM                         00000NNN
511027JONES PLUMBING                  Y010001YN00000NP10000002000000000001500000500000200006003C3NYNNNNJIM SMITH           JSMITH@ACME.COM                         00000NNN
511029FED EX                          N000002NN00000NB05000002000000000001500000500000200000003B0NNNYNNJIM SMITH           JSMITH@ACME.COM                         00000NNN
511031BOBS BURGERS                    Y003003NN00000NA10000002000000000000000000000000000000004B4NNNYYNJIM SMITH           JSMITH@ACME.COM                         00000YYY
511033PIZZA HUT                       N000001NN00000NN07000002000000000000000000000000000000004A0NNNNYNJIM SMITH           JSMITH@ACME.COM                         00000YNX
511034APPLE INC                       Y003002NP00500NA10000003000000000001500000500000200006004A1NNYNNNJIM SMITH           JSMITH@ACME.COM                         00000YNN
511035JONES INC                       Y009003NA00600NN05000004000000000000000000000000000000000C2NNYNNNJIM SMITH           JSMITH@ACME.COM                         00000YNN
511036SMITH REALTY                    Y001001NN00000NN00000000000000000000000000000000000000000C2NNYNYNJIM SMITH           JSMITH@ACME.COM                         00000NYN
511040PFIZER PHARMECUTICALS           N000002NN00000NN00000000000000000000000000000000000000000N3NNYNNAJIM SMITH           JSMITH@ACME.COM                         00000NNN
611041JONES DINER                     Y004003YN00000NA00000000000000000000000000000000000000001D0NNYNNNJIM SMITH           JSMITH@ACME.COM                         00000NNN
611042PATS PIZZA                      Y005001YN00000NP00000000000000000000000000000000000000001P0NNYNYNJIM SMITH           JSMITH@ACME.COM                         00000NNN
611044PAULS TV                        Y006002YN00000NA00000000000000000000000000000000000000001A0NNYNYNJIM SMITH           JSMITH@ACME.COM                         00000NNN
611045JORDANS FURNITURE               N000003NN00000NN00000000000000000000000000000000000000000N1NNYNNNJIM SMITH           JSMITH@ACME.COM                         00000NNY
T0000001608292013